:08000000803102288731ED2F49
:100AF400013400346830210099000800640080014A
:100B04000131890B812D00342000CA01CB01210061
:100B14009D1421009D1C08001C08F000F1017008C0
:100B24002000CA007108CB008B2D2000CC01CD0120
:100B340085317C2521009D0123008C012200910137
:100B440020009E018C01033021008C00080021004C
:100B54001D14BE2D83309D0508001D0883390438FB
:100B64009D0008001D08833908389D0008001D08F1
:100B740083390C389D0008007108003A0319C32D0D
:100B8400D12D7008003A0319AC2D013A0319AF2D89
:100B9400033A0319B42D013A0319B92DD12D0800D4
:100BA400F601F7017708803AF20080307202031DE3
:100BB400DD2D10307602031808000130F2000030F9
:100BC400F300760AE72DF235F30D890BE52D700855
:100BD4007205F40071087305F500750874040319AF
:100BE400F62D20008C16FB2DDF30F2007208200059
:100BF4008C05C330F300CD30F200F20BFF2DF30B64
:100C0400FF2D0130F6070030F73DD42D2300951851
:100C1400082E20004D0823009201920720004C0862
:100C2400230091019107700893003F30F20072088D
:100C34009505200003108B1B03148B13230015153B
:100C440055309600AA30960095141511200003180B
:100C54008B170D30F300FB30F200F20B2F2EF30B49
:100C64002F2E003201302000CC070030CD3D4D083E
:100C7400803AF20081307202031D422E00304C0291
:100C8400031C08002000CC01CD0108007908803A3B
:100C9400FA0080307A02031D512E81307802031C41
:100CA400562E20008C165B2EDF30FA007A082000C6
:100CB4008C05AA30FB00AA30FC007908803AFA00BF
:100CC40080307A02031D682E91307802031C6E2E48
:100CD4008030FB00C130FC007908803AFA00803093
:100CE4007A02031D772E99307802031C7D2ED030B2
:100CF400FB00CC30FC007908803AFA0080307A029C
:100D0400031D862EA1307802031C8C2E0030FB00BC
:100D1400E030FC007908803AFA0080307A02031D42
:100D2400952EA9307802031C9B2E0030FB00FF3067
:100D3400FC007908803AFA0080307A02031DA42E60
:100D4400B1307802031CAA2EE030FB00FF30FC0017
:100D54007908803AFA0080307A02031DB32EB93044
:100D64007802031CB92EFE30FB00FF30FC0079082A
:100D7400803AFA0080307A02031DC22EDE307802F7
:100D8400031CC82E0030FB008030FC007C08F101FD
:100D9400F1077B08F001F0078531D2250800853181
:100DA400972586310030F0000030F1008531A92507
:100DB40086318531862586310D302000C800FB3010
:100DC400C700C70BE32EC80BE32E003220004B08EC
:100DD400BE01BE074A08BD01BD070130F000003066
:100DE400F1008531A92586318531862586310D307E
:100DF4002000C800FB30C700C70BFE2EC80BFE2E18
:100E0400003220004B08C001C0074A08BF01BF07D9
:100E14003E08F101F1073D08F001F007863108268C
:100E2400863120004008F101F1073F08F001F00786
:100E3400863108268631EF302000C70047088C052C
:100E44000030F8000030F900863148268631200051
:100E54000C161A30C9005E30C8008630C700C70BB4
:100E6400312FC80B312FC90B312F00000030F8008F
:100E74000030F9008631482686310030F000003019
:100E8400F1008531A92586318531862586310D30DD
:100E94002000C800FB30C700C70B4E2FC80B4E2FD5
:100EA400003220004B08BE01BE074A08BD01BD0741
:100EB4000130F0000030F1008531A92586318531FB
:100EC400862586310D302000C800FB30C700C70BD3
:100ED400692FC80B692F003220004B08C001C007DE
:100EE4004A08BF01BF074008803AC7008030470264
:100EF400031D7E2FA1303F02031C932F20003E08C8
:100F0400803AC70080304702031D8A2F9B303D0280
:100F1400031C932F20000C16DF30C70047088C05F4
:100F2400A62FEF302000C70047088C053E08F901C2
:100F3400F9073D08F801F807863148268631013063
:100F44002000C3070030C43D2E30C900A930C800BA
:100F54005B30C700C70BAC2FC80BAC2FC90BAC2F31
:100F640020004408803AC70080304702031DBC2F8C
:100F740003304302031C3F2F20003E08F101F10718
:100F84003D08F001F007863108268631200040082C
:100F9400F101F1073F08F001F00786310826863198
:100FA400EF302000C70047088C05FF30F800003000
:100FB400F90086314826863110302000C9003930C6
:100FC400C8001B30C700C70BE52FC80BE52FC90BA2
:100FD400E52F0032D72F20308400003085002730E1
:100FE40085318025873185317A258731CC0085315B
:0C0FF4007B25CD007E1020008631D12E20
:020000040001F9
:02000E00A4C983
:00000001FF
