:040000008031212802
:10000800803120007F08B7000930B6003608950710
:100018000B110130CF070030D03D0F305006031DC3
:100028001728A0304F06031D1D28CF01D0018231AB
:100038005B2220003708FF000900803123283F3069
:1000480084000030850014308631E6268031BA30CD
:1000580084000030850017308631E62680318631ED
:10006800FD268031D3008631FE268031D4008631CA
:10007800FF268031D50087310027D6002000863141
:10008800782E8B1220308631D72680312030863169
:10009800D726803120308631D726803120308631EE
:1000A800D726803120308631D72680313C308631C2
:1000B800D726803154308631D72680314130863179
:1000C800D726803142308631D72680314C30863170
:1000D800D726803145308631D72680313E3086316B
:1000E800D72680312100B801B9013908803AFF00CC
:1000F80080307F02031D822840303802031892297D
:100108003C308631D726803154308631D72680312D
:1001180052308631D72680313E308631D72680311D
:100128003C308631D726803154308631D72680310D
:1001380044308631D72680313E308631D72680310B
:1001480021003908B5003808B400B435B50DB43508
:10015800B50D3408230091002100350823009200D2
:100168003F302100B4003408230095051514130806
:100178002100B400B5013408A8003508A900813170
:10018800B42180313C308631D726803154308631D5
:10019800D726803144308631D72680313E308631AB
:1001A800D726803121003908B5003808B400B435A5
:1001B800B50DB435B50D3408013EB6000030353DF7
:1001C800B700360823009100210037082300920069
:1001D8003F302100B4003408230095051514130896
:1001E8002100B400B5013408A8003508A900813100
:1001F800B42180313C308631D72680315430863165
:10020800D726803144308631D72680313E3086313A
:10021800D726803121003908B5003808B400B43534
:10022800B50DB435B50D3408023EB6000030353D85
:10023800B7003608230091002100370823009200F8
:100248003F302100B4003408230095051514130825
:100258002100B400B5013408A8003508A90081318F
:10026800B42180313C308631D726803154308631F4
:10027800D726803144308631D72680313E308631CA
:10028800D726803121003908B5003808B400B435C4
:10029800B50DB435B50D3408033EB6000030353D14
:1002A800B700360823009100210037082300920088
:1002B8003F302100B40034082300950515141308B5
:1002C8002100B400B5013408A8003508A90081311F
:1002D800B42180313C308631D72680312F308631A9
:1002E800D726803154308631D72680315230863136
:1002F800D72680313E308631D72680310130210023
:10030800B8070030B93D3908803AFF0080307F02D5
:10031800031D902940303802031C84283C30863164
:10032800D72680312F308631D72680315430863118
:10033800D726803141308631D72680314230863108
:10034800D72680314C308631D726803145308631EA
:10035800D72680313E308631D7268B168B1708007A
:1003680064302100A0000030A1002908A301A307E0
:100378002808A201A20783318D2381312100210899
:10038800B301B3072008B201B2070A30A000003059
:10039800A10033082000B901B90721003208200064
:1003A800B801B8076430BA000030BB008631972620
:1003B8008131200038092100AA00200039092100D4
:1003C800AB00AA0A0319AB0A28082A07A2002908C1
:1003D8002B3DA30083318D23813121002108B101F8
:1003E800B1072008B001B00733082000B901B907E8
:1003F800210032082000B801B8076430BA00003084
:10040800BB00863197268131200038082100AA00D8
:10041800200039082100AB0031082000B901B907D4
:10042800210030082000B801B8070A30BA000030AF
:10043800BB008631972681312000380821002A0721
:10044800AC002000390821002B3DAD00AC09AD09F6
:10045800AC0A0319AD0A28082C07AE0029082D3D5F
:10046800AF0033082000BA01BA0721003208200083
:10047800B901B9078631EC26813121003108200005
:10048800BA01BA07210030082000B901B90786313E
:10049800EC26813121002F082000BA01BA0721007B
:1004A8002E082000B901B9078631EC260800003073
:1004B800F0000030F1008531862582318631C6266C
:1004C800823131302000B0000030B1004E08B30155
:1004D800B3074D08B201B2078331E52382310D30ED
:1004E8002000B500FB30B400B40B782AB50B782A8D
:1004F8007D2A20004E08803AB4005408803A34021D
:10050800031D882A53084D020318912A20004E081B
:10051800D401D4074D08D301D30720004408803AFA
:10052800B4004E08803A3402031D9C2A4D08430249
:100538000318A52A20004E08C401C4074D08C301AA
:10054800C3070130F0000030F10085318625823183
:100558008631C626823132302000B0000030B1002A
:100568004E08B301B3074D08B201B2078331E52342
:1005780082310D302000B500FB30B400B40BC22A24
:10058800B50BC22AC72A20004E08803AB400560884
:10059800803A3402031DD22A55084D020318DB2A7B
:1005A80020004E08D601D6074D08D501D5072000F2
:1005B8004608803AB4004E08803A3402031DE62A01
:1005C8004D0845020318EF2A20004E08C601C60749
:1005D8004D08C501C50701302000C9070030CA3DD4
:1005E80003304A06031DFA2A48304906031D08004D
:1005F800C901CA0185310F2508006430F6000030B2
:10060800F70020002508F901F9072408F801F80780
:1006180084313A24833177082000AF01AF07760888
:10062800AE01AE070A30F6000030F7002F08F101DE
:10063800F1072E08F001F0076430F2000030F300F3
:1006480086315826833170092000A6007109A70059
:10065800A60A0319A70A24082607F8002508273D33
:10066800F90084313A24833177082000AD01AD07C1
:100678007608AC01AC072F08F101F1072E08F0014C
:10068800F0076430F2000030F300863158268331D9
:1006980070082000A6007108A7002D08F101F107D5
:1006A8002C08F001F0070A30F2000030F300863120
:1006B80058268331700820002607A8007108273DB6
:1006C800A900A809A909A80A0319A90A240828073A
:1006D800AA002508293DAB002F08F201F2072E08D1
:1006E800F101F1078631F826833120002D08F20147
:1006F800F2072C08F101F1078631F8268331200032
:100708002B08F201F2072A08F101F1078631F826D1
:1007180008002100A501A11F982BA009A109A00A82
:100728000319A10AA501A50AA31FA52BA209A309BC
:10073800A20A0319A30A01302000BE003E082100C6
:10074800A506A601A701210820040319D62BA40198
:10075800A40AA11BBB2B0130A035A10D890BB02B1E
:1007680001302000BE003E082100A407AD2B013057
:10077800A635A70D890BBC2B21082302031DC62B08
:1007880020082202031CCD2B2008A2022108A33B2B
:1007980026140130A136A00C890BCE2B0130A402FF
:1007A800031DBB2B25080319DE2BA609A709A60ADA
:1007B8000319A70A2708A101A1072608A001A00775
:1007C800080020308631DF26833120308631DF264D
:1007D800833120308631DF2683312730FC00F53025
:1007E800FB00FB0BF52BFC0BF52B23308631DF26AA
:1007F8008331200030088631DF2683313E30863150
:10080800DF26833120003308A501A5073208A4019B
:10081800A4078331012383312A308631DF268331CF
:100828002730FC00F530FB00FB0B182CFC0B182CB8
:1008380020308631DF26833120308631DF26833130
:1008480020308631DF26833120308631DF26833120
:1008580020308631DF2683314130FC00EE30FB004A
:10086800FB0B342CFC0B342C000008002000A101E9
:10087800F71F452CF609F709F60A0319F70AA1012B
:10088800A10AF91F502CF809F909F80A0319F90AFD
:100898000130FA007A08A106A201A30177087604BC
:1008A80003197F2CA001A00AF71B642C0130F63530
:1008B800F70D890B5B2C0130FA007A08A007582C39
:1008C8000130A235A30D890B652C77087902031D29
:1008D8006F2C76087802031C762C7608F8027708C5
:1008E800F93B22140130F736F60C890B772C0130CE
:1008F800A002031D642C21080319872CA209A3094F
:10090800A20A0319A30A2308F701F7072208F60128
:10091800F6072100080087310127843120008C0167
:10092800213021008C009D0123008C0122009101BF
:1009380020009E010230B8000030B90085314B25F7
:10094800843103302100A2008A30A1005630A00073
:10095800A00BAC2CA10BAC2CA20BAC2CB32C0230F2
:100968002000B8000030B9008531F9258431033002
:100978002100A2008A30A1005630A000A00BC22C92
:10098800A10BC22CA20BC22CC92C210095129515C3
:100998008B168B17080023009518CF2C20004008D1
:1009A80023009201920720003F082300910191073C
:1009B800700893003F30F20072089505200003107C
:1009C8008B1B03148B132300151555309600AA3082
:1009D800960095141511200003188B170D30F3009D
:1009E800FB30F200F20BF62CF30BF62CFB2C01304B
:1009F8002000BF070030C03D4008803AFF0081302A
:100A08007F02031D092D00303F02031C080020004F
:100A1800BF01C00108000230F0000030F10085314C
:100A2800C025853120005408F101F1075308F00171
:100A3800F0078431CF24853120004408F101F10703
:100A48004308F001F0078431CF248531FF302000BE
:100A5800D3000030D400C301C4015608F101F107E6
:100A68005508F001F0078431CF248531200046086D
:100A7800F101F1074508F001F0078431CF24FF3078
:100A88002000D5000030D600C501C60108002000AE
:100A9800BC01BD013D08803AFF0080307F02031D84
:100AA800572D1E303C020318080001302000BA0000
:100AB800380A5F2DBA35890B5E2D3A08BB003B0812
:100AC8008C04F930BA000000BA0B672D6B2D0000BA
:100AD80001302000BA00380A722DBA35890B712D01
:100AE8003A08FF3ABB003B088C05F930BA00000011
:100AF800BA0B7B2D7F2D000001302000BC07003091
:100B0800BD3D4E2D0130F200700A8B2DF235890B58
:100B18008A2D7208F300730821008C047130F200EA
:100B2800720823008C0421001D14AC2D83309D0510
:100B380008001D08833904389D0008001D08833902
:100B480008389D0008001D0883390C389D000800EE
:100B58007108003A0319B12DBF2D7008003A031926
:100B68009A2D013A03199D2D033A0319A22D013A32
:100B78000319A72DBF2D0800F401F5017508803A67
:100B8800FF0080307F02031DCB2D1E307402031836
:100B980008000130F200700AD22DF235890BD12DF0
:100BA8007208F300730820008C04F930F20000008A
:100BB800F20BDB2DDF2D00000130F200700AE52D6D
:100BC800F235890BE42D7208FF3AF3007308200010
:100BD8008C05F930F2000000F20BEF2DF32D000028
:100BE8000130F4070030F53DC22D2000BC01BD01E5
:100BF8003D08803AFF0080307F02031D052E323009
:100C08003C020318080001302000BA00380A0D2EF3
:100C1800BA35890B0C2E3A08BB003B088C04A63069
:100C2800BA00BA0B152E000001302000BA00380AAD
:100C38001E2EBA35890B1D2E3A08FF3ABB003B0819
:100C48008C05A630BA00BA0B272E00000130200010
:100C5800BC070030BD3DFC2D01302000BA00380A29
:100C6800362EBA35890B352E3A080C050319552E40
:100C78000730BB007D30BA00BA0B402EBB0B402EAC
:100C880001302000BA00380A4A2EBA35890B492E9D
:100C98003A080C050319552E0130B8000030B90088
:100CA8000800B801B9010800F401F50170185E2EBA
:100CB8002000622E7208F4077308F53D0130F23502
:100CC800F30D890B632E0130F136F00C890B682E79
:100CD80071087004031D5A2E7508F101F107740894
:100CE800F001F0072000080084318F248631863116
:100CF800F226863105302000B8000030B900863170
:100D0800302686310130200038063904031D7E2E36
:100D18000230B8000030B9008531F92586318031BC
:100D2800452086317E2E2000BC01BD01381CA02E36
:100D38003A08BC073B08BD3D0130BA35BB0D890BED
:100D4800A12E0130B936B80C890BA62E3908380403
:100D5800031D9A2E3D08B901B9073C08B801B80728
:100D6800080022001D1523009E161E129D171E1333
:100D78009E149E131E119F111D131D129C011930E4
:100D88009B0008002000CD01CE0121009D14210008
:100D98009D1C08001C08F000F10170082000CD001F
:100DA8007108CE00CB2E2000B800380823009A0026
:100DB8009E180800DC2EF000700823009A009E1888
:100DC8000800E32E640080010131890BE72E00340E
:100DD80020003908303E8631D72608008631B526EE
:100DE800673023009B0008007108303E8631DF26FB
:100DF8000800FF340034FF340034683021009900C3
:020E08000800E0
:020000040001F9
:02000E00A4C983
:00000001FF
